S01100005350494D41535445522E737265635B
S113000029C0000042C0000040C000003EC0000003
S11300103CC000003AC0000038C0000036C00000F8
S113002034C0000032C0000030C000002EC0000008
S113003007C200002AC0000028C0000026C000003B
S113004024C0000022C0000020C000001EC0000028
S11300501CC0000011241FBECFE5D8E0DEBFCDBF19
S113006010E0A0E6B0E0EEEEF4E002C005900D92E0
S1130070A036B107D9F720E0A0E6B0E001C01D9298
S1130080A436B207E1F702D030C2BACF20D11BD0D8
S113009087D02FEF84E39CE0215080409040E1F72B
S11300A000C00000BED180E895E2F3D118D219D285
S11300B0C82FADD040E064E081E012D18C2FBBD1D9
S11300C080936300F4CF67E083E077D166E083E058
S11300D074D165E083E071D163E083E06EC108957B
S11300E0CF93C82F40E064E083E0FAD0C4FB4427F8
S11300F040F964E082E0F4D0C5FB442740F965E0B0
S113010082E0EED0C6FB442740F966E082E0E8D006
S11301104C2F441F4427441F67E082E0E1D041E0B4
S113012066E083E0DDD083EF91E00197F1F700C052
S1130130000040E066E083E0D3D083EF91E00197D4
S1130140F1F700C000004C2F417064E082E0C8D099
S1130150C1FB442740F965E082E0C2D0C2FB4427DA
S113016040F966E082E0BCD0C3FB442740F967E075
S113017082E0B6D041E066E083E0B2D083EF91E064
S11301800197F1F700C0000040E066E083E0A8D0EA
S113019083EF91E00197F1F700C00000CF9108953B
S11301A08FE097E20197F1F700C0000083E398DF46
S11301B089EF90E00197F1F700C0000082E390DF3F
S11301C089EF90E00197F1F700C0000088E288DF32
S11301D089EF90E00197F1F700C000008CE080DF28
S11301E089EF90E00197F1F700C0000081E078DF2B
S11301F089EF90E00197F1F700C0000082E070DF22
S113020089EF90E00197F1F700C000000895CF93C3
S1130210C82F41E064E083E063D0C4FB442740F985
S113022064E082E05DD0C5FB442740F965E082E0EC
S113023057D0C6FB442740F966E082E051D04C2FEA
S1130240441F4427441F67E082E04AD041E066E04F
S113025083E046D083EF91E00197F1F700C00000FE
S113026040E066E083E03CD083EF91E00197F1F752
S113027000C000004C2F417064E082E031D0C1FB2B
S1130280442740F965E082E02BD0C2FB442740F9C3
S113029066E082E025D0C3FB442740F967E082E0B2
S11302A01FD041E066E083E01BD083EF91E001972B
S11302B0F1F700C0000040E066E083E011D083EF76
S11302C091E00197F1F700C00000CF9108958FE00D
S11302D08ABB8FEB87BB8FEF84BB8EEF81BB089506
S11302E0813001F130F08230B1F1833009F44CC037
S11302F00895413059F42BB381E090E002C0880F97
S1130300991F6A95E2F7822B8BBB08952BB381E08A
S113031090E002C0880F991F6A95E2F780958223C6
S11303208BBB0895413059F428B381E090E002C0BA
S1130330880F991F6A95E2F7822B88BB089528B32A
S113034081E090E002C0880F991F6A95E2F78095DA
S1130350822388BB0895413059F425B381E090E0AD
S113036002C0880F991F6A95E2F7822B85BB089516
S113037025B381E090E002C0880F991F6A95E2F7E7
S11303808095822385BB0895413059F422B381E0DE
S113039090E002C0880F991F6A95E2F7822B82BB16
S11303A0089522B381E090E002C0880F991F6A95F6
S11303B0E2F78095822382BB0895813089F028F08A
S11303C08230C9F0833011F1089529B381E090E0BF
S11303D002C0880F991F6A95E2F7822B89BB0895A2
S11303E026B381E090E002C0880F991F6A95E2F776
S11303F0822B86BB089523B381E090E002C0880F6E
S1130400991F6A95E2F7822B83BB089520B381E09C
S113041090E002C0880F991F6A95E2F7822B80BB97
S113042008956C9A6F9A6D9A6B986A98689869980F
S1130430709A6E9A08958FB9779BFECF8FB1089505
S11304401F920F920FB60F9211242F933F934F9345
S11304505F936F937F938F939F93AF93BF93EF9328
S1130460FF93E0916000F0916100309709F00995E5
S1130470FF91EF91BF91AF919F918F917F916F9178
S11304805F914F913F912F910F900FBE0F901F904E
S1130490189580B5806880BD83E389B980B58F776E
S11304A080BD80B5826080BD80B5846080BD529877
S11304B080B5806480BD539B03C080B58E7F80BDB2
S11304C0549B03C080B58E7F80BD80B58F7E80BD78
S11304D080B58F7D80BD80B5877F80BD0895549A97
S11104E008955F9BFECF8CB10895F894FFCF72
S9030000FC
